:100000000C9434000C9451000C9451000C94510049
:100010000C9451000C9451000C9451000C9451001C
:100020000C9451000C9451000C9451000C9451000C
:100030000C9451000C9451000C9451000C945100FC
:100040000C9451000C9451000C9451000C945100EC
:100050000C9451000C9451000C9451000C945100DC
:100060000C9451000C94510011241FBECFEFD8E026
:10007000DEBFCDBF14E0A0E0B1E0ECEAF8E002C0E2
:1000800005900D92A03BB107D9F724E0A0EBB4E0B6
:1000900001C01D92A13BB207E1F70E943F030C94FF
:1000A00054040C9400001092B90088E48093B800C6
:1000B000089584EA8093BC0080ED97E006C0019724
:1000C00021F41092BC0080E008952091BC0022230E
:1000D000B4F78091B900887F883031F0803131F0F9
:1000E0001092BC0080E0089581E0089581E00895B9
:1000F00084E98093BC0080ED97E02091BC0024FF50
:1001000002C00197D1F78FE891E00197F1F700C0A5
:10011000000008958093BB0084E88093BC0080EDCC
:1001200097E006C0019721F41092BC0080E008958A
:100130002091BC002223B4F78091B900887F8831D8
:1001400021F0883221F481E0089581E0089580E073
:100150000895CF939091B004992371F191E06111CA
:1001600001C090E0807F8860C82FC92B0E94590091
:10017000882311F18EE40E948A00811103C00E943D
:1001800078001AC08C2F0E948A0085E38A95F1F7C7
:1001900000008C2F84600E948A0095E39A95F1F705
:1001A00000008C2F0E948A0087EC90E00197F1F705
:1001B00000C000000E947800CF910895CF93DF9394
:1001C0009091B004992359F0D62FC82F807F0E94B8
:1001D000A9006D2F8C2F8295807F0E94A900DF914E
:1001E000CF910895CF939091B004992371F0C82FC7
:1001F00060E00E94DE008FEF8C0F823030F48FE1E0
:100200009EE40197F1F700C00000CF91089590910E
:10021000B004992319F061E00E94DE0008950E9465
:1002200053002FEF81EE94E0215080409040E1F7A1
:1002300000C000000E945900882351F08EE40E9403
:100240008A00882319F081E08093B0040E9478002E
:100250008091B004882309F455C02FEF81EE94E01B
:10026000215080409040E1F700C0000060E080E352
:100270000E94A9008FE39CE90197F1F700C00000FC
:1002800060E080E30E94A9008FE19EE40197F1F70E
:1002900000C0000060E080E30E94A9008FE19EE4BE
:1002A0000197F1F700C0000060E080E20E94A90021
:1002B0008FE19EE40197F1F700C0000088E20E9400
:1002C000F2008FE39FE10197F1F700C000008CE09E
:1002D0000E94F2008FE39FE10197F1F700C0000058
:1002E00081E00E94F2008FE39CE90197F1F700C0E2
:1002F000000086E00E94F2008FE39FE10197F1F792
:1003000000C0000008959091B004992349F0811134
:1003100003C080E8860F02C080EC860F0E94F200C6
:100320000895CF93DF93EC018091B004811104C054
:1003300006C021960E94070188818111FACFDF91C2
:10034000CF9108958091B004882381F060E080E02F
:100350000E94830180E091E00E94910160E081E0D1
:100360000E94830181E191E00E9491010895CF9361
:100370009091B004992309F441C0C82F60E081E056
:100380000E948301C11105C082E291E00E949101A7
:1003900035C0C13029F483E391E00E9491012EC061
:1003A000C23029F484E491E00E94910127C0C33057
:1003B00029F485E591E00E94910120C0C43029F420
:1003C00086E691E00E94910119C0C53029F487E7C3
:1003D00091E00E94910112C0C63029F488E891E0B2
:1003E0000E9491010BC0C73029F489E991E00E9475
:1003F000910104C081E191E00E949101CF910895A3
:1004000084B1826084B91092800088E0809381007A
:1004100008958AB183708AB987B18C7F87B98BB10F
:100420008C6F8BB988B1836088B908951092C5002C
:1004300087E68093C40088E18093C10086E08093C2
:10044000C200089510928500109284009093890054
:100450008093880080E4809380008BE0809381000B
:1004600008951092850010928400909389008093E3
:10047000880080E4809380008AE080938100089562
:10048000E0E8F0E080818F7B808388E080938100CA
:1004900085B18D7F85B910928500109284000895F2
:1004A0004A9B10C04B9B10C04C9B10C04D9B10C072
:1004B0004E9B10C04F9B10C0309B10C0319910C094
:1004C00087E0089580E0089581E0089582E008952E
:1004D00083E0089584E0089585E0089586E0089516
:1004E0008FEF08958091C000807808958091C000BA
:1004F0008823E4F78091C6000895FC0107C090911D
:10050000C00095FFFCCF31968093C6008081811199
:10051000F6CF08958AEA91E00E947D0280ED91E095
:100520000E947D0284EF91E00E947D028BE092E0C8
:100530000E947D028CE292E00E947D0282E492E0C1
:100540000E947D028FE592E00E947D0208950F9344
:100550001F93CF93DF938C01C0E0D0E013C08FE3F3
:100560009CE90197F1F700C000000E947202882305
:1005700041F00E947602833551F0833751F0803389
:1005800051F02A96C017D10750F380E005C081E0F2
:1005900003C081E001C081E0DF91CF911F910F91F5
:1005A00008958F929F92AF92BF92CF92DF92EF9277
:1005B000FF920F931F93CF93DF935C016B017A013E
:1005C000822E912C47C0892D90E0F601E80FF91F8B
:1005D000E081880F991FD701A80FB91FCD91DC9139
:1005E000EF3F59F40E944002CE010E94A7028823E7
:1005F00081F10E94400281E035C080E58C9F90012E
:100600008D9F300D11243695279536952795ABE7AC
:10061000B4E10E9445048C0116950795C01BD10BCF
:10062000F0E0EE0FFF1FEA0DFB1D808191810E941B
:100630003102C8010E94A702882321F00E944002D3
:1006400081E010C00E944002CE010E94A7028111E9
:1006500008C09394981408F4B6CF0E94400280E03A
:1006600001C081E0DF91CF911F910F91FF90EF903A
:10067000DF90CF90BF90AF909F908F9008950E9491
:1006800000020E9409020E9416020E940F010E94AD
:100690008A020E94A2011FEF0E947202882309F4BD
:1006A000C8C00E9476028D3009F4C3C08A3009F4B4
:1006B000C0C0803209F4BDC08133E1F585E892E025
:1006C0000E947D0260E080E00E94830188EA92E05F
:1006D0000E94910160E081E00E94830189EB92E039
:1006E0000E94910120E245E354E065E774E085E96A
:1006F00094E00E94D102C82F60E081E00E94830153
:10070000CC2329F08AEC92E00E94910104C08BED89
:1007100092E00E9491012FEF83ED90E32150804001
:100720009040E1F700C000000E94A2010E948A02EE
:100730001FEF7FC0823321F0833611F08334E1F55F
:100740008CEE92E00E947D0260E080E00E948301D6
:1007500081E193E00E94910160E081E00E948301C9
:1007600089EB92E00E94910124E241EC53E069E0C0
:1007700074E08DE294E00E94D102C82F60E081E035
:100780000E948301CC2329F08AEC92E00E9491011F
:1007900004C08BED92E00E9491012FEF83ED90E376
:1007A000215080409040E1F700C000000E94A2016B
:1007B0000E948A021FEF3DC08333D9F582E293E0A5
:1007C0000E947D0260E080E00E94830184E493E067
:1007D0000E94910160E081E00E94830189EB92E038
:1007E0000E94910120E245E553E065E973E085EB65
:1007F00093E00E94D102C82F60E081E00E94830153
:10080000CC2329F08AEC92E00E94910104C08BED88
:1008100092E00E9491012FEF83ED90E32150804000
:100820009040E1F700C000000E94A2010E948A02ED
:100830001FEF0E945002C82F181701F12FEF89EF08
:1008400090E0215080409040E1F700C000000E94FD
:100850005002D82FC81312C08F3F51F0E82FEE0F6F
:10086000FF0BE156FB4F808191810E94220202C062
:100870000E9440028D2F0E94B7011D2F8FE39CE93B
:100880000197F1F700C0000007CFA29FB001B39F0E
:10089000C001A39F700D811D1124911DB29F700D89
:0C08A000811D1124911D0895F894FFCFD4
:1008AC004D6F646F3A205069616E6F2020202020BC
:1008BC00004E6F74613A202D2D2D202020202020F9
:1008CC0020004E6F74613A20444F202020202020BD
:1008DC002020004E6F74613A2052452020202020A9
:1008EC00202020004E6F74613A204D49202020209A
:1008FC0020202020004E6F74613A20464120202099
:10090C002020202020004E6F74613A20534F4C2041
:10091C00202020202020004E6F74613A204C412072
:10092C0020202020202020004E6F74613A20534953
:10093C002020202020202020004E6F74613A20447B
:10094C004F20414755444F2020000D0A3D3D3D3D71
:10095C003D3D3D3D3D3D3D3D3D3D3D3D3D3D3D3DBB
:10096C003D3D3D3D3D3D3D3D3D3D3D3D3D0D0A004B
:10097C00204D454E552044452043414E43494F4E52
:10098C00455320284573637269626520312D3329E4
:10099C003A0D0A00202031202D204F7369746F20EE
:1009AC00476F6D696E6F6C610D0A00202032202D2F
:1009BC00204D616D6D61204D69612028414242419D
:1009CC0029205B6F202763275D0D0A002020332030
:1009DC002D20477261766974792046616C6C730DB9
:1009EC000A00202053202D20446574656E6572200A
:1009FC00726570726F64756363696F6E0D0A003D8A
:100A0C003D3D3D3D3D3D3D3D3D3D3D3D3D3D3D3D0A
:100A1C003D3D3D3D3D3D3D3D3D3D3D3D3D3D3D3DFA
:100A2C000D0A3E20000D0A5B536F6E616E646F5DA4
:100A3C0020312D204F7369746F20476F6D696E6F75
:100A4C006C612E2E2E0D0A0043313A204F736974BF
:100A5C006F20476F6D2E202000536F6E616E646F98
:100A6C002E2E2E20202020202000446574656E69D7
:100A7C00646121202020202020200046696E616CBA
:100A8C00697A616461212020202020000D0A5B53CB
:100A9C006F6E616E646F5D20322D204D616D6D61E6
:100AAC00204D6961202841424241292E2E2E0D0AEB
:100ABC000043323A204D616D6D61204D69612020FB
:100ACC0020000D0A5B536F6E616E646F5D20332DD9
:100ADC0020477261766974792046616C6C732E2E96
:100AEC002E0D0A0043333A477261766974792046B9
:100AFC00616C6C7300B900B900B900B900B900B9E8
:100B0C0000B900B900B900B900B900B900B900B911
:100B1C0000B900B900B900B900B900B900B900B901
:100B2C0000B900B900B900B900B900B900B900B9F1
:100B3C0000B9007201050300030503000305010061
:100B4C00010501000104020002040200020402007B
:100B5C000204020003E00876070B07A606EC0597D3
:100B6C0005FA00FA00FA00F401C800C800C800C871
:100B7C0000FA009001F4012003C800C800C800C8A6
:100B8C0000FA002003FA00FA00FA00F401C800C8C9
:100B9C0000C800C800FA009001F4012003C800C886
:100BAC0000C800C800FA00E80300000100000001C2
:100BBC000201000100030303030200000001000016
:100BCC0000010201000100030303030200ED0E4CBF
:100BDC000DD80B2E0BB400B400B400B400B40068F4
:100BEC0001B400B400B400B400B400B4006801B4A3
:100BFC0000B400B400B400B400B400B400B400B449
:100C0C0000B400B400B400B400B4006801B400B483
:100C1C0000B4001C020101010201010101010102E9
:100C2C000404040404040303030303030304030282
:100C3C000101000201F609E0087607A606EC05DCC6
:100C4C0001A8017A0165013E011B01FC00EE0000C8
:00000001FF
