:020000020000FC
:1000000008E00EBF0FEF0DBF0FE316E02BE53FE456
:1000100046E65DE66DE777E08FE79FE6AFEFAAB9CA
:10002000AA27A4B9A7E0A5B9D0E01DD0189B05C0A8
:10003000199B0BC01A9B11C0F9CFD93011F0D39581
:1000400012D0189BFECF38D0F1CFD03011F0DA9516
:100050000AD0199BFECF30D0E9CFD0E004D01A9B54
:10006000FECF2AD0E3CFD03099F0D13099F0D23002
:1000700099F0D33099F0D43099F0D53099F0D6304A
:1000800099F0D73099F0D83099F0D93099F0089597
:100090000BB908951BB908952BB908953BB908957C
:1000A0004BB908955BB908956BB908957BB908956C
:1000B0008BB908959BB90895B4E1C8ECEAEFEA95CD
:0C00C000F1F7CA95D9F7BA95C1F7089579
:00000001FF
